:020000040800F2
:1000000000000220ED150008D5040008D704000800
:10001000D9040008DB040008DD040008000000002B
:10002000000000000000000000000000DF040008E5
:10003000E104000800000000E3040008E5040008F3
:100040003D1600083D1600083D1600083D16000844
:100050003D1600083D1600083D1600083D16000834
:100060003D1600083D1600083D1600083D16000824
:100070003D1600083D1600083D1600083D16000814
:100080003D1600083D1600083D160008ED04000866
:10009000FD0400080D0500081D0500083D160008B8
:1000A0003D1600083D1600083D1600083D160008E4
:1000B0003D1600083D1600083D1600083D160008D4
:1000C0003D1600083D1600083D1600083D160008C4
:1000D0003D1600083D1600083D1600083D160008B4
:1000E0003D1600083D1600083D1600083D160008A4
:1000F0003D1600083D1600083D1600083D16000894
:100100003D1600083D1600083D1600083D16000883
:100110003D1600083D1600083D1600083D16000873
:100120003D1600083D1600083D1600083D16000863
:100130003D16000800000000000000003D16000809
:100140003D1600083D1600083D1600083D16000843
:100150003D1600083D1600083D1600083D16000833
:100160003D1600083D1600083D1600083D16000823
:100170003D1600083D1600083D160008000000006E
:10018000000000003D160008000000000000000014
:100190003D16000800000000000000003D160008A9
:1001A0000000000000000000000000003D160008F4
:1001B0003D1600083D1600083D1600083D160008D3
:0401C0003D160008E0
:1001C40053B94AB9002908BF00281CBF4FF0FF31BA
:1001D4004FF0FF3000F00CB8ADF1080C6DE904CE1F
:1001E40001F00EFBDDF804E0DDE9022304B0704702
:1001F400704700BF10B5054C237833B9044B13B1D5
:100204000448AFF300800123237010BD3C04002098
:1002140000000000801A000808B5034B1BB1034915
:100224000348AFF3008008BD000000004004002034
:10023400801A000808B50D480D4B03600323436082
:1002440000238360C3604FF4202202614FF48012C4
:100254004261037643768376C3760377437700F06F
:1002640011FA00B908BD00F0B3F8FBE75804002008
:100274000064004010B588B00023039304930593F1
:10028400069307930268254B9A4201D008B010BD2B
:100294000024019403F5EA331A6C42F000721A64E4
:1002A4001A6C02F000720192019A02941A6B42F0E5
:1002B40001021A631B6B03F001030293029B4FF4C8
:1002C400C053039302230493032306930923079340
:1002D40003A9134800F01AFC22462146132000F01B
:1002E400BBFB132000F0F0FB22462146142000F053
:1002F400B3FB142000F0E8FB22462146152000F051
:10030400ABFB152000F0E0FB22462146162000F04E
:10031400A3FB162000F0D8FBB8E700BF0064004040
:100324000000024030B58BB0002405940694079475
:10033400089409940194224B1A6B42F004021A6344
:100344001A6B02F004020192019A02941A6B42F0B1
:1003540080021A631A6B02F080020292029A0394DA
:100364001A6B42F001021A631A6B02F00102039243
:10037400039A04941A6B42F002021A631B6B03F093
:1003840002030493049B0F4D22462021284600F0CB
:10039400ADFC4FF4005305930B4B0693079405A94A
:1003A4000A4800F0B3FB2023059301230693079426
:1003B400089405A9284600F0A9FB0BB030BD00BF86
:1003C40000380240000002400000211000080240F2
:1003D40072B6FEE700B595B03422002107A801F0FB
:1003E4006DF90023029303930493059306930093FA
:1003F4001F4A116C41F080511164126C02F080525A
:100404000092009A01931B490A6822F4404242F484
:1004140080420A600A6802F440420192019A022270
:10042400079201210A9110210B910D920E930F91C5
:100434004FF4A8731093042311931292139207A8F4
:1004440000F0F8FD80B90F230293022103910023E9
:1004540004934FF480520592069302A800F04CFCDA
:1004640020B915B05DF804FBFFF7B2FFFFF7B0FF4A
:10047400003802400070004008B500F0D7F8FFF7DC
:10048400A9FFFFF74FFFFFF7D5FE00F057F8FEE78F
:1004940000B583B0002100910C4B5A6C42F48042A9
:1004A4005A645A6C02F480420092009A01911A6CC8
:1004B40042F080521A641B6C03F080530193019B39
:1004C400072000F0B7FA03B05DF804FB00380240DF
:1004D400FEE7FEE7FEE7FEE7FEE77047704770477A
:1004E40008B500F0BDF808BD08B5024800F07DF974
:1004F40008BD00BF5804002008B5024800F075F993
:1005040008BD00BF5804002008B5024800F06DF98A
:1005140008BD00BF5804002008B5024800F065F982
:1005240008BD00BF58040020034AD2F8883043F4C1
:100534007003C2F88830704700ED00E008B50A483F
:100544000A4B03604FF4E133436000238360C360CC
:1005540003610C2242618361C36101F015F800B9A3
:1005640008BDFFF735FFFBE780040020004400408E
:1005740000B589B00023039304930593069307936E
:100584000268154B9A4202D009B05DF804FB0021C1
:10059400019103F5FA331A6C42F400321A641A6CAE
:1005A40002F400320192019A02911A6B42F00102A4
:1005B4001A631B6B03F001030293029B0C23039346
:1005C40002230493032306930723079303A90348F1
:1005D40000F09CFAD8E700BF00440040000002404D
:1005E40010B504460E4B1A784FF47A73B3FBF2F34A
:1005F4000C4A1068B0FBF3F000F074FA68B90F2CE1
:1006040001D901200AE0002221464FF0FF3000F01A
:1006140023FA054B1C60002000E0012010BD00BF40
:1006240004000020000000200800002008B50B4B47
:100634001A6842F400721A601A6842F480621A60FE
:100644001A6842F480721A60032000F0F3F9002063
:10065400FFF7C6FFFFF71CFF002008BD003C024067
:10066400034A1168034B1B780B441360704700BFA7
:10067400C404002004000020014B1868704700BF28
:10068400C4040020002800F0A18038B5044690F886
:100694002030D3B12268136823F002031360FFF7FC
:1006A400EBFF054623685A6812F0020F10D0FFF7DB
:1006B400E3FF401B0A28F5D9636A43F400336362FD
:1006C400052384F82030012038BDFFF7D3FDE1E78E
:1006D4001A6842F001021A60FFF7CEFF054623684C
:1006E4005A6812F0010F0DD1FFF7C6FF401B0A280C
:1006F400F5D9636A43F400336362052384F8203038
:100704000120E1E7227E012A3DD01A6822F080020E
:100714001A60637E012B3BD02268136823F04003E8
:100724001360A37E012B39D02268136823F02003C1
:100734001360E37E012B37D02268136843F0100363
:100744001360237F012B35D02268136823F008033C
:100754001360637F012B33D02268136823F00403F2
:100764001360A368E2681343226913436269134365
:100774006268013A21681343CB610020606201235F
:1007840084F82030A0E71A6842F080021A60C0E7BB
:100794002268136843F040031360C2E722681368B9
:1007A40043F020031360C4E72268136823F01003A6
:1007B4001360C6E72268136843F008031360C8E7B0
:1007C4002268136843F004031360CAE701207047EA
:1007D400704770477047704770477047704770475D
:1007E400704770477047704770472DE9F84F0546CA
:1007F40003685C69D3F804809F68D3F80CB0D3F81D
:1008040010A0D3F8189014F001063BD017F001069D
:1008140016D001229A6017F0020F08D117F0040FC6
:100824000CD117F0080606D04FF4805608E0FFF705
:10083400CFFF002604E0FFF7CEFF01E04FF400668F
:1008440017F4807F0DD02B684FF480729A6017F4F0
:10085400007F40F0868017F4806F00F0868046F4B5
:10086400005617F4803F0DD02B684FF480329A6005
:1008740017F4003F40F0838017F4802F00F083804A
:1008840046F4004614F0080F07D01BF0100F04D0F4
:1008940046F400762B681022DA6014F0040F02D0BC
:1008A4001BF0080F79D114F0020F04D02B68DB6819
:1008B40013F0030F78D114F0400F07D01AF0100F83
:1008C40004D046F480662B6810221A6114F0200FBD
:1008D40002D01AF0080F6BD114F0100F04D02B685B
:1008E4001B6913F0030F6AD114F4003F02D018F00F
:1008F400100F68D114F4803F02D018F0080F69D1AA
:1009040014F4004F7AD018F0040F74D014F4807FDC
:1009140004D019F0010F01D046F0010614F4007F51
:1009240004D019F0020F01D046F0020614F4806FCF
:1009340004D019F0040F01D046F0040614F4006F3B
:1009440059D019F0700956D0B9F1400F65D058D874
:10095400B9F1200F5ED0B9F1300F42D146F0200634
:1009640044E02846FFF735FF7BE717F4006F02D019
:1009740046F4804675E72846FFF72EFF71E72846C0
:10098400FFF728FF7EE717F4002F02D046F48036E5
:1009940078E72846FFF721FF74E72B680822DA601E
:1009A4002846FFF71CFF7EE72846FFF717FF82E77C
:1009B4002B6808221A612846FFF713FF8CE72846A4
:1009C400FFF70EFF90E72B6810225A602846FFF7C6
:1009D40009FF8FE72B6808225A602846FFF703FFB8
:1009E4008EE7B9F1100F01D146F008062A68936921
:1009F40023F0700393612B6804225A609EB9BDE80A
:100A0400F88FB9F1500F0BD0B9F1600FEED146F465
:100A14008076EBE746F01006E8E746F04006E5E7A7
:100A240046F08006E2E76B6A33436B622846FFF7C1
:100A3400DBFEE4E7074AD36823F4E0631B041B0CE2
:100A4400000200F4E060034343F0BF6343F4003367
:100A5400D360704700ED00E000B5194BDB68C3F3C9
:100A64000223C3F1070CBCF1040F28BF4FF0040CA0
:100A740003F1040EBEF1060F18D9033B4FF0FF3EFD
:100A84000EFA0CFC21EA0C0199400EFA03FE22EA4C
:100A94000E020A4300280BDB1201D2B200F16040BF
:100AA40000F5614080F800235DF804FB0023E5E7CE
:100AB40000F00F001201D2B2024B1A54F4E700BF47
:100AC40000ED00E014ED00E0002807DB00F01F0259
:100AD400400901239340024A42F82030704700BF86
:100AE40000E100E00138B0F1807F0BD24FF0E02349
:100AF4005861054AF02182F82310002098610722EA
:100B04001A6170470120704700ED00E000230F2BAD
:100B140000F2E38070B582B065E085684FEA430E69
:100B2400032404FA0EF425EA0405CC6804FA0EF44E
:100B34002C438460446824EA02044A68C2F3001225
:100B44009A40224342605CE0DC08083450F82420D8
:100B540003F00705AD004FF00F0E0EFA05FE22EA72
:100B64000E0E0A69AA4042EA0E0240F824205CE014
:100B7400062200E0002202FA0EF22A430234574D04
:100B840045F82420564A14686FEA0C0224EA0C053E
:100B94004E6816F4803F01D04CEA0405504C2560A1
:100BA400646802EA04054E6816F4003F01D04CEA7A
:100BB40004054B4C6560A46802EA04054E6816F40B
:100BC400801F01D04CEA0405454CA560E46822402E
:100BD4004D6815F4001F01D04CEA0402404CE26059
:100BE40001330F2B77D801229A400C6804EA020CD7
:100BF40032EA0404F4D14C6804F00304013C012CEF
:100C04008BD94A6802F00302032A09D0C4685D0044
:100C14000322AA4024EA02048A68AA402243C2604A
:100C24004A6802F00302022A8ED004684FEA430E97
:100C3400032202FA0EF224EA02044A6802F00302D2
:100C440002FA0EF2224302604A6812F0805FC7D0B3
:100C540000220192234A546C44F480445464526C3C
:100C640002F480420192019A9C08A51C1B4A52F886
:100C7400255003F0030E4FEA8E0E0F2202FA0EF2F5
:100C840025EA0205184A90423FF474AF02F58062E7
:100C9400904216D002F58062904214D002F5806230
:100CA400904212D002F58062904210D002F5806228
:100CB40090420ED002F5806290423FF459AF072271
:100CC40059E7012257E7022255E7032253E704229A
:100CD40051E705224FE702B070BD7047003801406C
:100CE400003C014000380240000002400AB181612A
:100CF4007047090481617047002800F09B8070B53B
:100D04000D4604464F4B1B6803F00F038B4208D279
:100D1400CBB24C4A1370136803F00F038B4240F0BC
:100D24008B80236813F0020F17D013F0040F04D044
:100D3400454A936843F4E0539360236813F0080F23
:100D440004D0414A936843F4604393603E4A9368F5
:100D540023F0F003A1680B439360236813F0010FA1
:100D640032D06368012B21D09A1E012A25D9364A34
:100D7400126812F0020F61D033498A6822F003022C
:100D840013438B60FFF778FC06462F4B9B6803F0F8
:100D94000C036268B3EB820F16D0FFF76DFC801B67
:100DA40041F288339842F0D9032042E0264A12687F
:100DB40012F4003FE0D101203BE0234A126812F014
:100DC400007FD9D1012034E01E4B1B6803F00F03D0
:100DD400AB4207D9EAB21B4B1A701B6803F00F032E
:100DE400AB422DD1236813F0040F06D0164A936842
:100DF40023F4E053E1680B439360236813F0080F76
:100E040007D0114A936823F46043216943EAC1037C
:100E1400936000F047F80C4B9B68C3F303130B4A31
:100E2400D35CD8400A4B18600A4B1868FFF7D8FB0C
:100E3400002070BD012070470120FAE70120F8E787
:100E44000120F6E7003C024000380240981A0008EE
:100E54000000002008000020014B1868704700BF04
:100E64000000002008B5FFF7F7FF044B9B68C3F3AD
:100E74008223034AD35CD84008BD00BF0038024037
:100E8400A81A000808B5FFF7E7FF044B9B68C3F3F3
:100E94004233034AD35CD84008BD00BF0038024047
:100EA400A81A000808B5604B9B6803F00C03082BD4
:100EB40007D00C2B5FD0042B01D05C4808BD5C48E4
:100EC400FCE7594B5A6802F03F025B6813F4800F49
:100ED4002CD0554B5868C0F388104FEA401CBCEB2B
:100EE400000C6EEB0E0E4FEA8E1343EA9C634FEA3E
:100EF4008C11B1EB0C0163EB0E03DB0043EA51737D
:100F0400C90011EB000C43F10003590200234FEA1E
:100F14004C2041EADC51FFF753F9434B5B68C3F3C0
:100F2400014301335B00B0FBF3F0C7E73E4B586865
:100F3400C0F388104FEA401CBCEB000C6EEB0E0EA5
:100F44004FEA8E1343EA9C634FEA8C11B1EB0C0118
:100F540063EB0E03DB0043EA5173C90011EB000C91
:100F640043F10003990200234FEA8C2041EA9C518B
:100F7400FFF726F9D1E72C4B5A6802F03F025B6871
:100F840013F4800F2AD0284B5868C0F388104FEA16
:100F9400401CBCEB000C6EEB0E0E4FEA8E1343EAC2
:100FA4009C634FEA8C11B1EB0C0163EB0E03DB0085
:100FB40043EA5173C90011EB000C43F100035902D9
:100FC40000234FEA4C2041EADC51FFF7F9F8164BB5
:100FD4005B68C3F30273B0FBF3F06FE7124B58681E
:100FE400C0F388104FEA401CBCEB000C6EEB0E0EF5
:100FF4004FEA8E1343EA9C634FEA8C11B1EB0C0168
:1010040063EB0E03DB0043EA5173C90011EB000CE0
:1010140043F10003990200234FEA8C2041EA9C51DA
:10102400FFF7CEF8D3E700BF003802400024F400F5
:1010340000127A00002800F0018270B582B00446E4
:10104400036813F0010F41D0994B9B6803F00C0324
:10105400042B32D0964B9B6803F00C03082B27D04B
:10106400934B9B6803F00C030C2B59D06368B3F5C6
:10107400803F5BD0B3F5A02F5ED08D4B1A6822F46D
:1010840080321A601A6822F480221A606368002B86
:101094005CD0FFF7F1FA0546854B1B6813F4003F5B
:1010A40014D1FFF7E9FA401B6428F5D90320CCE1F9
:1010B4007F4B5B6813F4800FD2D07D4B1B6813F415
:1010C400003F03D06368002B00F0BA81236813F05B
:1010D400020F60D0764B9B6813F00C0F4AD0744B10
:1010E4009B6803F00C03082B3FD0714B9B6803F003
:1010F4000C030C2B69D0E368002B75D06D4B0122D7
:101104001A60FFF7B9FA0546694B1B6813F0020F22
:1011140061D1FFF7B1FA401B0228F5D9032094E10D
:10112400634B5B6813F4800FA0D0C6E7604A136872
:1011340043F480331360A9E75D4B1A6842F48022BC
:101144001A601A6842F480321A609FE7FFF794FA33
:101154000546574B1B6813F4003FB7D0FFF78CFAD2
:10116400401B6428F5D903206FE1514B5B6813F4ED
:10117400800FBAD14E4B1B6813F0020F03D0E36803
:10118400012B40F05F814A4A136823F0F803216978
:1011940043EAC1031360236813F0080F49D063695D
:1011A400002B33D0434B0122C3F8802EFFF764FA9F
:1011B40005463F4B5B6F13F0020F3AD1FFF75CFA21
:1011C400401B0228F5D903203FE1394B5B6813F437
:1011D400800F90D1CEE7364A136823F0F8032169D3
:1011E40043EAC1031360D6E7324B00221A60FFF7CB
:1011F40043FA05462E4B1B6813F0020FCBD0FFF7C2
:101204003BFA401B0228F5D903201EE1294B00229A
:10121400C3F8802EFFF730FA0546254B5B6F13F0B9
:10122400020F06D0FFF728FA401B0228F5D9032045
:101234000BE1236813F0040F76D01D4B1B6C13F0E5
:10124400805F33D100230193194B1A6C42F0805212
:101254001A641B6C03F080530193019B0125164B08
:101264001B6813F4807F29D0A368012B3AD0052B87
:101274003ED00F4B1A6F22F001021A671A6F22F048
:1012840004021A67A368002B3CD0FFF7F5F9064661
:10129400074B1B6F13F0020F45D1FFF7EDF9801BCD
:1012A40041F288339842F3D90320CEE00025D6E7F3
:1012B4000038024000004742007000406B4A136847
:1012C40043F480731360FFF7D7F90646674B1B6836
:1012D40013F4807FC8D1FFF7CFF9801B0228F5D91A
:1012E4000320B2E0624A136F43F001031367C9E7B6
:1012F4005F4B1A6F42F004021A671A6F42F0010240
:101304001A67BFE7FFF7B8F90646594B1B6F13F08E
:10131400020F08D0FFF7B0F9801B41F288339842DE
:10132400F3D9032091E0EDB9A369002B00F08C8080
:101334004F4A926802F00C02082A54D0022B17D0AC
:101344004C4B00221A66FFF797F90446484B1B687A
:1013540013F0007F45D0FFF78FF9001B0228F5D961
:10136400032072E0424A136C23F080531364DBE7DA
:10137400404B00221A66FFF77FF905463C4B1B6879
:1013840013F0007F06D0FFF777F9401B0228F5D948
:1013940003205AE0E369226A1343626A43EA821330
:1013A400A26A5208013A43EA0243E26A43EA026348
:1013B400226B43EA02732E4A53602E4B01221A66B3
:1013C400FFF75AF904462A4B1B6813F0007F06D135
:1013D400FFF752F9001B0228F5D9032035E000205D
:1013E40033E0002031E0012B31D0214B5B6803F462
:1013F4008001E26991422CD103F03F02216A8A42C2
:1014040029D1616A47F6C0721A40B2EB811F24D118
:1014140003F44031A26A5208013AB1EB024F1ED1E3
:1014240003F07062E16AB2EB016F1AD103F0E0439A
:10143400226BB3EB027F16D1002006E00120704737
:10144400012002E0012000E0002002B070BD012074
:10145400FBE70120F9E70120F7E70120F5E7012088
:10146400F3E70120F1E70120EFE700BF007000403F
:10147400003802400000474210B504460268136970
:1014840023F44053C1680B431361836802691A4310
:1014940043691A43C3691A430168CB6823F41643AA
:1014A40023F00C031343CB600268536923F44073A5
:1014B40081690B4353610368314A934206D002F5B4
:1014C4008062934202D0FFF7CDFC01E0FFF7DAFC23
:1014D400E369B3F5004F29D00021031849411B18D3
:1014E40041F10001C90041EA5371DB001818636837
:1014F4004FEA83024FEA937341F10001FEF760FE65
:10150400204AA2FB00314909642303FB11031B0198
:101514003233A2FB03235B0903F0F00202EB011256
:1015240003F00F03216813448B6010BD00230218DD
:1015340043EB0301121841F10001C90041EA527161
:10154400D200101841F10001626892185B41FEF765
:1015540037FE0C4AA2FB00314909642303FB110343
:10156400DB003233A2FB03235B095A0002F4F87256
:1015740002EB011203F00703216813448B60D4E7E4
:10158400001001401F85EB5158B310B5044690F884
:101594003D300BB3242384F83D302268D36823F410
:1015A4000053D3602046FFF767FF2268136923F4D2
:1015B400904313612268536923F02A03536122681C
:1015C400D36843F40053D36000202064202384F8BC
:1015D4003D3084F83E3010BD80F83C30FEF7C8FF43
:1015E400D8E7012070470000DFF834D00D480E49D9
:1015F4000E4A002302E0D458C4500433C4188C4269
:10160400F9D30B4A0B4C002301E013600432A242CD
:10161400FBD3FEF789FF00F02DF8FEF72DFF70478E
:1016240000000220000000203C040020C81A00082A
:101634003C040020CC040020FEE700000023014607
:101644001A46184600F08CB838B5084B084D5B1B99
:101654009C1007D0043B1D44013C55F804399847BD
:10166400002CF9D1BDE8384000F00EBAC81A0008C1
:10167400C41A000870B50D4E0D4D761BB61006D079
:10168400002455F8043B01349847A642F9D1094E89
:10169400094D761B00F0F2F9B61006D0002455F877
:1016A400043B01349847A642F9D170BDBC1A000826
:1016B400BC1A0008C41A0008BC1A0008830730B515
:1016C40048D0541E002A3FD0CAB2034601E0013C70
:1016D4003AD303F8012B9D07F9D1032C2DD9CDB2B0
:1016E40045EA05250F2C45EA054536D9A4F1100233
:1016F40022F00F0C03F1200EE6444FEA121C03F112
:10170400100242E9045542E9025510327245F8D1FB
:101714000CF1010214F00C0F03EB021204F00F0C95
:1017240013D0ACF1040323F003030433134442F84D
:10173400045B9342FBD10CF003042CB1CAB21C44E9
:1017440003F8012B9C42FBD130BD64461346002CA8
:10175400F4D1F9E703461446BFE71A46A446E0E786
:101764002DE9F8431D4D0646286898460F469146D4
:1017740000F042F81A4B1B68D3F848411CB32868A0
:1017840065681F2D24DC4EB96B1C0235636044F878
:10179400257000F033F80020BDE8F88304EB8501E0
:1017A4000123C1F88890D4F88821AB401A43022E53
:1017B400C4F88821C1F80881E6D1D4F88C211343F8
:1017C400C4F88C31E0E703F5A674C3F84841D6E7C2
:1017D40000F014F84FF0FF30DEE700BF38040020BB
:1017E400B01A0008024B13B10248FFF727BF704735
:1017F400000000004D160008704700BF704700BF8E
:101804002DE9F0478C468E46089E15460446194637
:10181400002B40F0AF807245B2FA82F743D94FB142
:10182400C7F120030EFA07FC20FA03F3BD4043EA94
:101834000C0CBC404FEA154EA8B2BCFBFEF8230CBE
:101844000EFB18CC08FB00F943EA0C43994528D950
:10185400EB1808F1FF3204D2994502D9A8F102022B
:101864002B44A3EB0903B3FBFEFCA4B20EFB1C3315
:101874000CFB00F044EA0344A04279D92C190CF182
:10188400FF3304D2A04202D9ACF102032C44241A3F
:1018940043EA02401EB1FC40002334607360BDE89B
:1018A400F0874246DDE702B9FFDEE7B9AEEB02039B
:1018B40001214FEA154EA8B2B3FBFEFC220C0EFB2D
:1018C4001C330CFB00F842EA034398454ED9EB184D
:1018D4000CF1FF3204D2984502D9ACF102022B4438
:1018E400A3EB0803BFE7C7F120012EFA01F3BD40C3
:1018F4000EFA07FE20FA01F141EA0E014FEA154EF5
:10190400AAB2B3FBFEFC0EFB1C300B0C0CFB02F862
:1019140043EA0043984504FA07F423D9EB180CF181
:10192400FF3004D2984502D9ACF102002B44A3EB5A
:101934000803B3FBFEFC0CFB02F80EFB1C328BB25B
:1019440043EA024398450FD9EB180CF1FF3104D256
:10195400984502D9ACF102012B44A3EB080341EAF8
:101964000041A6E76046E2E76146F6E76246B7E76C
:1019740063468CE7734505D90EB1C6E9000E002114
:1019840008468CE7B3FA83F787B9734501D38242DB
:101994000AD8841A6EEB030301209C46002E6AD0F9
:1019A400C6E9004C00217AE73846F7E7C7F1200C76
:1019B400BB4022FA0CF41C4320FA0CF12EFA0CF36F
:1019C4000EFA07FE41EA0E014FEA144900FA07F540
:1019D400B3FBF9F81FFA84FE09FB18300B0C08FB63
:1019E4000EFA43EA00439A4502FA07F23FD9E31894
:1019F40008F1FF3004D29A4502D9A8F10200234429
:101A0400A3EB0A0389B2B3FBF9F809FB183308FB0B
:101A14000EFE41EA03418E452BD9611808F1FF33CC
:101A240004D28E4502D9A8F10203214443EA0040BE
:101A3400A0FB0298A1EB0E014145CE46434602D3DA
:101A440006D14D4504D2B9EB020E68EB040301380C
:101A54008EB1B5EB0E0261EB030101FA0CFC22FA24
:101A640007F34CEA0303F940C6E900319AE740461C
:101A7400C6E74346DAE7314611E70000F8B500BF90
:101A8400F8BC08BC9E467047F8B500BFF8BC08BC5B
:041A94009E467047B3
:101A98000000000000000000010203040607080916
:0C1AA800000000000102030410000020F8
:081AB40050FDFF7F010000005E
:081ABC00E91700081D020008F3
:041AC400F90100081C
:101AC8000024F400010000001000000000000000E5
:101AD80000000000FC02002064030020CC0300206A
:101AE80000000000000000000000000000000000EE
:101AF80000000000000000000000000000000000DE
:101B080000000000000000000000000000000000CD
:101B180000000000000000000000000000000000BD
:101B280000000000000000000000000000000000AD
:101B3800000000000000000000000000000000009D
:101B4800000000000000000000000000000000008D
:101B5800000000000000000000000000000000007D
:101B6800000000000000000000000000000000006D
:101B7800000000000000000001000000000000005C
:101B88000E33CDAB34126DE6ECDE05000B00000021
:101B9800000000000000000000000000000000003D
:101BA800000000000000000000000000000000002D
:101BB800000000000000000000000000000000001D
:101BC800000000000000000000000000000000000D
:0C1EF8000000000000000000C8040020F2
:04000005080015EDED
:00000001FF
